{
  "contractName": "KittyBox",
  "abi": [
    {
      "constant": true,
      "inputs": [],
      "name": "lastCat",
      "outputs": [
        {
          "name": "",
          "type": "string"
        }
      ],
      "payable": false,
      "stateMutability": "view",
      "type": "function"
    },
    {
      "constant": true,
      "inputs": [],
      "name": "getListLength",
      "outputs": [
        {
          "name": "",
          "type": "uint256"
        }
      ],
      "payable": false,
      "stateMutability": "view",
      "type": "function"
    },
    {
      "constant": true,
      "inputs": [],
      "name": "mostRecentlyDeceased",
      "outputs": [
        {
          "name": "",
          "type": "uint256"
        }
      ],
      "payable": false,
      "stateMutability": "view",
      "type": "function"
    },
    {
      "constant": false,
      "inputs": [
        {
          "name": "catId",
          "type": "uint256"
        }
      ],
      "name": "observe",
      "outputs": [],
      "payable": false,
      "stateMutability": "nonpayable",
      "type": "function"
    }
  ],
  "bytecode": "0x6060604052341561000f57600080fd5b61048c8061001e6000396000f3006060604052600436106100615763ffffffff7c0100000000000000000000000000000000000000000000000000000000600035041663767f60da8114610066578063800205131461008b578063b65c531b146100a3578063df7620bb146100b6575b600080fd5b341561007157600080fd5b610079610140565b60405190815260200160405180910390f35b341561009657600080fd5b6100a1600435610168565b005b34156100ae57600080fd5b6100796102e7565b34156100c157600080fd5b6100c96102ed565b60405160208082528190810183818151815260200191508051906020019080838360005b838110156101055780820151838201526020016100ed565b50505050905090810190601f1680156101325780820380516001836020036101000a031916815260200191505b509250505060405180910390f35b6001805460009190600019810190811061015657fe5b90600052602060002090015490505b90565b600061017261038b565b9050600181151514156102235760408051908101604052600581527f416c697665000000000000000000000000000000000000000000000000000000602082015260009080516101c69291602001906103a3565b50604080519081016040908152600582527f416c697665000000000000000000000000000000000000000000000000000000602080840191909152600085815260029091522090805161021d9291602001906103a3565b506102e3565b60408051908101604052600481527f44656164000000000000000000000000000000000000000000000000000000006020820152600090805161026a9291602001906103a3565b50604080519081016040908152600582527f416c69766500000000000000000000000000000000000000000000000000000060208084019190915260008581526002909152209080516102c19291602001906103a3565b50600180548082016102d3838261041d565b5060009182526020909120018290555b5050565b60015490565b60008054600181600116156101000203166002900480601f0160208091040260200160405190810160405280929190818152602001828054600181600116156101000203166002900480156103835780601f1061035857610100808354040283529160200191610383565b820191906000526020600020905b81548152906001019060200180831161036657829003601f168201915b505050505081565b60026001600a436000190140060190810615905b5090565b828054600181600116156101000203166002900490600052602060002090601f016020900481019282601f106103e457805160ff1916838001178555610411565b82800160010185558215610411579182015b828111156104115782518255916020019190600101906103f6565b5061039f929150610446565b81548183558181151161044157600083815260209020610441918101908301610446565b505050565b61016591905b8082111561039f576000815560010161044c5600a165627a7a72305820beda9a90fd786b96341e83935b9dbc3cb6a191a2b6008305fa362db665ba3c560029",
  "source": "pragma solidity ^0.4.18;\n\nimport \"./Random.sol\";\n\ncontract KittyBox is Random {\n  string public lastCat;\n  uint[] internal sematary;\n\n  mapping (uint => string) internal catState;\n\n  function getListLength() public view returns (uint) {\n    return sematary.length;\n  }\n\n  function mostRecentlyDeceased() public view returns (uint) {\n    return sematary[(sematary.length - 1)];\n  }\n\n  function observe(uint catId) public {\n    bool _alive = pseudoCoinflip();\n    if (_alive == true) {\n      lastCat = 'Alive';\n      catState[catId] = 'Alive';\n    } else {\n      lastCat = 'Dead';\n      catState[catId] = 'Alive';\n      sematary.push(catId);\n    }\n  }\n}\n",
  "sourcePath": "/Users/j/Coding/cryptokittybox/contracts/KittyBox.sol",
  "compiler": {
    "name": "solc",
    "version": "0.4.19+commit.c4cbbb05.Emscripten.clang"
  },
  "schemaVersion": "1.0.1",
  "updatedAt": "2018-03-12T23:28:15.402Z"
}