{
  "contractName": "KittyBox",
  "abi": [
    {
      "constant": true,
      "inputs": [],
      "name": "getListLength",
      "outputs": [
        {
          "name": "",
          "type": "uint256"
        }
      ],
      "payable": false,
      "stateMutability": "view",
      "type": "function"
    },
    {
      "constant": true,
      "inputs": [],
      "name": "mostRecentlyDeceased",
      "outputs": [
        {
          "name": "",
          "type": "uint256"
        }
      ],
      "payable": false,
      "stateMutability": "view",
      "type": "function"
    },
    {
      "constant": false,
      "inputs": [
        {
          "name": "catId",
          "type": "uint256"
        }
      ],
      "name": "observe",
      "outputs": [],
      "payable": false,
      "stateMutability": "nonpayable",
      "type": "function"
    }
  ],
  "bytecode": "0x6060604052341561000f57600080fd5b6103598061001e6000396000f3006060604052600436106100565763ffffffff7c0100000000000000000000000000000000000000000000000000000000600035041663767f60da811461005b5780638002051314610080578063b65c531b14610098575b600080fd5b341561006657600080fd5b61006e6100ab565b60405190815260200160405180910390f35b341561008b57600080fd5b6100966004356100d3565b005b34156100a357600080fd5b61006e610252565b600180546000919060001981019081106100c157fe5b90600052602060002090015490505b90565b60006100dd610258565b90506001811515141561018e5760408051908101604052600581527f416c69766500000000000000000000000000000000000000000000000000000060208201526000908051610131929160200190610270565b50604080519081016040908152600582527f416c6976650000000000000000000000000000000000000000000000000000006020808401919091526000858152600290915220908051610188929160200190610270565b5061024e565b60408051908101604052600481527f4465616400000000000000000000000000000000000000000000000000000000602082015260009080516101d5929160200190610270565b50604080519081016040908152600582527f416c697665000000000000000000000000000000000000000000000000000000602080840191909152600085815260029091522090805161022c929160200190610270565b506001805480820161023e83826102ea565b5060009182526020909120018290555b5050565b60015490565b60026001600a436000190140060190810615905b5090565b828054600181600116156101000203166002900490600052602060002090601f016020900481019282601f106102b157805160ff19168380011785556102de565b828001600101855582156102de579182015b828111156102de5782518255916020019190600101906102c3565b5061026c929150610313565b81548183558181151161030e5760008381526020902061030e918101908301610313565b505050565b6100d091905b8082111561026c57600081556001016103195600a165627a7a723058202754277c103044d7e8bdd1ee08aef0e1cdf4d299ce98fe778cb9fc7797f832da0029",
  "source": "pragma solidity ^0.4.18;\n\nimport \"./Random.sol\";\n\ncontract KittyBox is Random {\n  string internal lastCat;\n  uint[] internal sematary;\n\n  mapping (uint => string) internal catState;\n\n  function getListLength() public view returns (uint) {\n    return sematary.length;\n  }\n\n  function mostRecentlyDeceased() public view returns (uint) {\n    return sematary[(sematary.length - 1)];\n  }\n\n  function observe(uint catId) public {\n    bool _alive = pseudoCoinflip();\n    if (_alive == true) {\n      lastCat = 'Alive';\n      catState[catId] = 'Alive';\n    } else {\n      lastCat = 'Dead';\n      catState[catId] = 'Alive';\n      sematary.push(catId);\n    }\n  }\n}\n",
  "sourcePath": "/Users/j/Coding/cryptokittybox/contracts/KittyBox.sol",
  "compiler": {
    "name": "solc",
    "version": "0.4.19+commit.c4cbbb05.Emscripten.clang"
  },
  "schemaVersion": "1.0.1",
  "updatedAt": "2018-03-12T21:25:36.535Z"
}