{
  "contractName": "Random",
  "abi": [
    {
      "constant": true,
      "inputs": [],
      "name": "alive",
      "outputs": [
        {
          "name": "",
          "type": "string"
        }
      ],
      "payable": false,
      "stateMutability": "view",
      "type": "function"
    },
    {
      "constant": false,
      "inputs": [],
      "name": "observe",
      "outputs": [],
      "payable": false,
      "stateMutability": "nonpayable",
      "type": "function"
    }
  ],
  "bytecode": "0x6060604052341561000f57600080fd5b6103098061001e6000396000f30060606040526004361061004b5763ffffffff7c010000000000000000000000000000000000000000000000000000000060003504166314fc78fc8114610050578063753899e914610065575b600080fd5b341561005b57600080fd5b6100636100ef565b005b341561007057600080fd5b6100786101a4565b60405160208082528190810183818151815260200191508051906020019080838360005b838110156100b457808201518382015260200161009c565b50505050905090810190601f1680156100e15780820380516001836020036101000a031916815260200191505b509250505060405180910390f35b6001600a436000190140068101906002820615908114156101575760408051908101604052600581527f416c69766500000000000000000000000000000000000000000000000000000060208201526000908051610151929160200190610242565b506101a0565b60408051908101604052600481527f44656164000000000000000000000000000000000000000000000000000000006020820152600090805161019e929160200190610242565b505b5050565b60008054600181600116156101000203166002900480601f01602080910402602001604051908101604052809291908181526020018280546001816001161561010002031660029004801561023a5780601f1061020f5761010080835404028352916020019161023a565b820191906000526020600020905b81548152906001019060200180831161021d57829003601f168201915b505050505081565b828054600181600116156101000203166002900490600052602060002090601f016020900481019282601f1061028357805160ff19168380011785556102b0565b828001600101855582156102b0579182015b828111156102b0578251825591602001919060010190610295565b506102bc9291506102c0565b5090565b6102da91905b808211156102bc57600081556001016102c6565b905600a165627a7a72305820ca1848875a64db82dc613342db9acf4c73d3d8c40c40519891574f64ec61b3d10029",
  "source": "pragma solidity ^0.4.18;\ncontract Random {\n    string public alive;\n\n    function observe() public {\n        uint random_number = uint(block.blockhash(block.number-1))%10 + 1;\n        bool divis = bool((random_number%2) == 0);\n        if (divis == true) {\n          alive = 'Alive';\n        } else {\n          alive = 'Dead';\n        }\n    }\n}\n",
  "sourcePath": "/Users/j/Coding/cryptokittybox/contracts/Random.sol",
  "compiler": {
    "name": "solc",
    "version": "0.4.19+commit.c4cbbb05.Emscripten.clang"
  },
  "schemaVersion": "1.0.1",
  "updatedAt": "2018-03-03T18:49:27.832Z"
}