{
  "contractName": "Random",
  "abi": [
    {
      "constant": true,
      "inputs": [],
      "name": "number",
      "outputs": [
        {
          "name": "",
          "type": "uint256"
        }
      ],
      "payable": false,
      "stateMutability": "view",
      "type": "function"
    },
    {
      "constant": false,
      "inputs": [],
      "name": "set",
      "outputs": [],
      "payable": false,
      "stateMutability": "nonpayable",
      "type": "function"
    }
  ],
  "bytecode": "0x6060604052341561000f57600080fd5b60c48061001d6000396000f30060606040526004361060485763ffffffff7c01000000000000000000000000000000000000000000000000000000006000350416638381f58a8114604d578063b8e010de14606f575b600080fd5b3415605757600080fd5b605d6081565b60405190815260200160405180910390f35b3415607957600080fd5b607f6087565b005b60005481565b6001600a43600019014006016000555600a165627a7a72305820c600584ad3fe82a563fb65a79a5b311e64ee25ee94aae2eb5d00b4dc98f2f0600029",
  "source": "pragma solidity ^0.4.18;\ncontract Random {\n    uint public number;\n\n    function set() public {\n        uint random_number = uint(block.blockhash(block.number-1))%10 + 1;\n        number = random_number;\n    }\n}\n",
  "sourcePath": "/Users/j/Coding/cryptokittybox/contracts/Random.sol",
  "compiler": {
    "name": "solc",
    "version": "0.4.19+commit.c4cbbb05.Emscripten.clang"
  },
  "schemaVersion": "1.0.1",
  "updatedAt": "2018-03-02T16:25:33.008Z"
}