{
  "contractName": "Random",
  "abi": [
    {
      "constant": true,
      "inputs": [],
      "name": "getListLength",
      "outputs": [
        {
          "name": "",
          "type": "uint256"
        }
      ],
      "payable": false,
      "stateMutability": "view",
      "type": "function"
    },
    {
      "constant": true,
      "inputs": [],
      "name": "mostRecentlyDeceased",
      "outputs": [
        {
          "name": "",
          "type": "uint256"
        }
      ],
      "payable": false,
      "stateMutability": "view",
      "type": "function"
    },
    {
      "constant": false,
      "inputs": [
        {
          "name": "catId",
          "type": "uint256"
        }
      ],
      "name": "observe",
      "outputs": [],
      "payable": false,
      "stateMutability": "nonpayable",
      "type": "function"
    }
  ],
  "bytecode": "0x6060604052341561000f57600080fd5b6103418061001e6000396000f3006060604052600436106100565763ffffffff7c0100000000000000000000000000000000000000000000000000000000600035041663767f60da811461005b5780638002051314610080578063b65c531b14610098575b600080fd5b341561006657600080fd5b61006e6100ab565b60405190815260200160405180910390f35b341561008b57600080fd5b6100966004356100d3565b005b34156100a357600080fd5b61006e610257565b600180546000919060001981019081106100c157fe5b90600052602060002090015490505b90565b6001600a436000190140068101906002820615908114156101925760408051908101604052600581527f416c6976650000000000000000000000000000000000000000000000000000006020820152600090805161013592916020019061025d565b50604080519081016040908152600582527f416c697665000000000000000000000000000000000000000000000000000000602080840191909152600086815260029091522090805161018c92916020019061025d565b50610252565b60408051908101604052600481527f4465616400000000000000000000000000000000000000000000000000000000602082015260009080516101d992916020019061025d565b50604080519081016040908152600582527f416c697665000000000000000000000000000000000000000000000000000000602080840191909152600086815260029091522090805161023092916020019061025d565b506001805480820161024283826102db565b5060009182526020909120018390555b505050565b60015490565b828054600181600116156101000203166002900490600052602060002090601f016020900481019282601f1061029e57805160ff19168380011785556102cb565b828001600101855582156102cb579182015b828111156102cb5782518255916020019190600101906102b0565b506102d79291506102fb565b5090565b815481835581811511610252576000838152602090206102529181019083015b6100d091905b808211156102d757600081556001016103015600a165627a7a72305820dd58334fedea3ac4ba89f8292ab8e2b671dceccea5a50096fe0879c461d522fb0029",
  "source": "pragma solidity ^0.4.18;\ncontract Random {\n  string internal lastCat;\n  uint[] internal sematary;\n\n  mapping (uint => string) internal catState;\n\n  function getListLength() public view returns (uint) {\n    return sematary.length;\n  }\n\n  function mostRecentlyDeceased() public view returns (uint) {\n    return sematary[(sematary.length - 1)];\n  }\n\n  function observe(uint catId) public {\n    uint _pseudoRandomNumber = uint(block.blockhash(block.number-1))%10 + 1;\n    bool _divis = bool((_pseudoRandomNumber%2) == 0);\n    if (_divis == true) {\n      lastCat = 'Alive';\n      catState[catId] = 'Alive';\n    } else {\n      lastCat = 'Dead';\n      catState[catId] = 'Alive';\n      sematary.push(catId);\n    }\n  }\n}\n",
  "sourcePath": "/Users/j/Coding/cryptokittybox/contracts/Random.sol",
  "compiler": {
    "name": "solc",
    "version": "0.4.19+commit.c4cbbb05.Emscripten.clang"
  },
  "schemaVersion": "1.0.1",
  "updatedAt": "2018-03-12T21:13:05.832Z"
}