{
  "contractName": "Random",
  "abi": [
    {
      "constant": true,
      "inputs": [],
      "name": "alive",
      "outputs": [
        {
          "name": "",
          "type": "string"
        }
      ],
      "payable": false,
      "stateMutability": "view",
      "type": "function"
    },
    {
      "constant": true,
      "inputs": [
        {
          "name": "",
          "type": "uint256"
        }
      ],
      "name": "deadForNow",
      "outputs": [
        {
          "name": "",
          "type": "uint256"
        }
      ],
      "payable": false,
      "stateMutability": "view",
      "type": "function"
    },
    {
      "constant": true,
      "inputs": [],
      "name": "getList",
      "outputs": [
        {
          "name": "",
          "type": "uint256[]"
        }
      ],
      "payable": false,
      "stateMutability": "view",
      "type": "function"
    },
    {
      "constant": false,
      "inputs": [
        {
          "name": "catId",
          "type": "uint256"
        }
      ],
      "name": "observe",
      "outputs": [],
      "payable": false,
      "stateMutability": "nonpayable",
      "type": "function"
    }
  ],
  "bytecode": "0x6060604052341561000f57600080fd5b6104828061001e6000396000f3006060604052600436106100615763ffffffff7c0100000000000000000000000000000000000000000000000000000000600035041663753899e9811461006657806380020513146100f0578063942b765a14610108578063ed8ee81b1461016e575b600080fd5b341561007157600080fd5b610079610196565b60405160208082528190810183818151815260200191508051906020019080838360005b838110156100b557808201518382015260200161009d565b50505050905090810190601f1680156100e25780820380516001836020036101000a031916815260200191505b509250505060405180910390f35b34156100fb57600080fd5b610106600435610234565b005b341561011357600080fd5b61011b61030a565b60405160208082528190810183818151815260200191508051906020019060200280838360005b8381101561015a578082015183820152602001610142565b505050509050019250505060405180910390f35b341561017957600080fd5b610184600435610369565b60405190815260200160405180910390f35b60008054600181600116156101000203166002900480601f01602080910402602001604051908101604052809291908181526020018280546001816001161561010002031660029004801561022c5780601f106102015761010080835404028352916020019161022c565b820191906000526020600020905b81548152906001019060200180831161020f57829003601f168201915b505050505081565b6001600a4360001901400681019060028206159081141561029c5760408051908101604052600581527f416c69766500000000000000000000000000000000000000000000000000000060208201526000908051610296929160200190610388565b50610305565b60408051908101604052600481527f4465616400000000000000000000000000000000000000000000000000000000602082015260009080516102e3929160200190610388565b50600180548082016102f58382610406565b5060009182526020909120018390555b505050565b61031261042a565b600180548060200260200160405190810160405280929190818152602001828054801561035e57602002820191906000526020600020905b81548152602001906001019080831161034a575b505050505090505b90565b600180548290811061037757fe5b600091825260209091200154905081565b828054600181600116156101000203166002900490600052602060002090601f016020900481019282601f106103c957805160ff19168380011785556103f6565b828001600101855582156103f6579182015b828111156103f65782518255916020019190600101906103db565b5061040292915061043c565b5090565b8154818355818115116103055760008381526020902061030591810190830161043c565b60206040519081016040526000815290565b61036691905b8082111561040257600081556001016104425600a165627a7a72305820729903ea90ad65cdba2c1524b6a94513113631bca4d3e09e1ddb5d040867d4150029",
  "source": "pragma solidity ^0.4.18;\ncontract Random {\n  string public alive;\n  uint[] public deadForNow;\n\n  function getList() constant returns (uint[]) {\n    return deadForNow;\n  }\n\n  function observe(uint catId) public {\n    uint random_number = uint(block.blockhash(block.number-1))%10 + 1;\n    bool divis = bool((random_number%2) == 0);\n    if (divis == true) {\n      alive = 'Alive';\n    } else {\n      alive = 'Dead';\n      deadForNow.push(catId);\n    }\n  }\n}\n",
  "sourcePath": "/Users/j/Coding/cryptokittybox/contracts/Random.sol",
  "compiler": {
    "name": "solc",
    "version": "0.4.19+commit.c4cbbb05.Emscripten.clang"
  },
  "schemaVersion": "1.0.1",
  "updatedAt": "2018-03-03T22:05:38.532Z"
}