{
  "contractName": "RandomExample",
  "abi": [
    {
      "inputs": [],
      "payable": false,
      "stateMutability": "nonpayable",
      "type": "constructor"
    },
    {
      "anonymous": false,
      "inputs": [
        {
          "indexed": false,
          "name": "",
          "type": "bytes"
        }
      ],
      "name": "newRandomNumber_bytes",
      "type": "event"
    },
    {
      "anonymous": false,
      "inputs": [
        {
          "indexed": false,
          "name": "",
          "type": "uint256"
        }
      ],
      "name": "newRandomNumber_uint",
      "type": "event"
    },
    {
      "constant": false,
      "inputs": [
        {
          "name": "myid",
          "type": "bytes32"
        },
        {
          "name": "result",
          "type": "string"
        }
      ],
      "name": "__callback",
      "outputs": [],
      "payable": false,
      "stateMutability": "nonpayable",
      "type": "function"
    },
    {
      "constant": false,
      "inputs": [
        {
          "name": "_queryId",
          "type": "bytes32"
        },
        {
          "name": "_result",
          "type": "string"
        },
        {
          "name": "_proof",
          "type": "bytes"
        }
      ],
      "name": "__callback",
      "outputs": [],
      "payable": false,
      "stateMutability": "nonpayable",
      "type": "function"
    },
    {
      "constant": false,
      "inputs": [],
      "name": "update",
      "outputs": [],
      "payable": true,
      "stateMutability": "payable",
      "type": "function"
    }
  ],
  "bytecode": "0x606060405234156200001057600080fd5b620000497f3000000000000000000000000000000000000000000000000000000000000000640100000000620027446200006782021704565b62000061640100000000620002f06200029382021704565b62001ab5565b600054600160a060020a03161580620000a25750600054620000a090600160a060020a031664010000000062000a87620002be82021704565b155b15620000c457620000c2600064010000000062000a8b620002c282021704565b505b60008054600160a060020a0316906338cc483190604051602001526040518163ffffffff167c0100000000000000000000000000000000000000000000000000000000028152600401602060405180830381600087803b15156200012757600080fd5b6102c65a03f115156200013957600080fd5b5050506040518051600154600160a060020a039081169116149050620001f85760008054600160a060020a0316906338cc483190604051602001526040518163ffffffff167c0100000000000000000000000000000000000000000000000000000000028152600401602060405180830381600087803b1515620001bc57600080fd5b6102c65a03f11515620001ce57600080fd5b505050604051805160018054600160a060020a031916600160a060020a0392909216919091179055505b600154600160a060020a031663688dcfd7826040517c010000000000000000000000000000000000000000000000000000000063ffffffff84160281527fff000000000000000000000000000000000000000000000000000000000000009091166004820152602401600060405180830381600087803b15156200027b57600080fd5b6102c65a03f115156200028d57600080fd5b50505050565b6001600062030d4081620002b7818584640100000000620005dc620002e282021704565b5050505050565b3b90565b6000620002dc640100000000620014e36200084482021704565b92915050565b6000620002ee620019d1565b620002f8620019d1565b62000302620019d1565b60006200030e620019d1565b62000318620019d1565b62000322620019e3565b60006200032e620019d1565b60008c11801562000340575060208c11155b15156200034c57600080fd5b600a8d029c506001604051805910620003625750595b818152601f19601f8301168101602001604052905098508b7f01000000000000000000000000000000000000000000000000000000000000000289600081518110620003aa57fe5b906020010190600160f860020a031916908160001a9053506020604051805910620003d25750595b818152601f19601f8301168101602001604052905097506020604051805910620003f95750595b818152601f19601f83011681016020016040529050965062000428640100000000620010d162000c2482021704565b9550602088524241186001430340186020890152602087528560208801526020604051805910620004565750595b818152601f19601f8301168101602001604052905094508c60208601526008604051805910620004835750595b818152601f19601f830116810160200160405290509350620004ba85601860088760006401000000006200125f62000e3882021704565b506080604051908101604052808981526020018a81526020018881526020018681525092506200052d60408051908101604052600681527f72616e646f6d00000000000000000000000000000000000000000000000000006020820152848d640100000000620012b462000e9282021704565b915060086040518059106200053f5750595b8181526020601f909201601f19168101820160405291508401517f0100000000000000000000000000000000000000000000000000000000000000810460278301537e01000000000000000000000000000000000000000000000000000000000000810460268301537d010000000000000000000000000000000000000000000000000000000000810460258301537c0100000000000000000000000000000000000000000000000000000000810460248301537b01000000000000000000000000000000000000000000000000000000810460238301537a0100000000000000000000000000000000000000000000000000008104602283015379010000000000000000000000000000000000000000000000000081046021830153780100000000000000000000000000000000000000000000000081046020830153506200083482826020860151600287516000604051602001526040518082805190602001908083835b60208310620006c75780518252601f199092019160209182019101620006a6565b6001836020036101000a03801982511681845116808217855250505050505090500191505060206040518083038160008661646e5a03f115156200070a57600080fd5b50506040518051905060408801516040518085805190602001908083835b60208310620007495780518252601f19909201916020918201910162000728565b6001836020036101000a038019825116818451161790925250505091909101905084805190602001908083835b60208310620007975780518252601f19909201916020918201910162000776565b6001836020036101000a038019825116818451161790925250505091909101848152602001905082805190602001908083835b60208310620007eb5780518252601f199092019160209182019101620007ca565b6001836020036101000a038019825116818451161790925250505091909101955060409450505050505180910390206200111664010000000002620014d1176401000000009004565b509b9a5050505050505050505050565b60008062000874731d3b2638a7cc9f2cb3d298a3da7a90b67e5506ed64010000000062000a87620002be82021704565b1115620008f65760008054600160a060020a031916731d3b2638a7cc9f2cb3d298a3da7a90b67e5506ed179055620008ed60408051908101604052600b81527f6574685f6d61696e6e65740000000000000000000000000000000000000000006020820152640100000000620022a36200112882021704565b50600162000c21565b60006200092573c03a2615d5efaf5f49f60b7bb6583eaec212fdf164010000000062000a87620002be82021704565b11156200099e5760008054600160a060020a03191673c03a2615d5efaf5f49f60b7bb6583eaec212fdf1179055620008ed60408051908101604052600c81527f6574685f726f707374656e3300000000000000000000000000000000000000006020820152640100000000620022a36200112882021704565b6000620009cd73b7a07bcf2ba2f2703b24c0691b5278999c59ac7e64010000000062000a87620002be82021704565b111562000a465760008054600160a060020a03191673b7a07bcf2ba2f2703b24c0691b5278999c59ac7e179055620008ed60408051908101604052600981527f6574685f6b6f76616e00000000000000000000000000000000000000000000006020820152640100000000620022a36200112882021704565b600062000a7573146500cfd35b22e4a392fe0adc06de1a1368ed4864010000000062000a87620002be82021704565b111562000aee5760008054600160a060020a03191673146500cfd35b22e4a392fe0adc06de1a1368ed48179055620008ed60408051908101604052600b81527f6574685f72696e6b6562790000000000000000000000000000000000000000006020820152640100000000620022a36200112882021704565b600062000b1d736f485c8bf6fc43ea212e93bbf8ce046c7f1cb47564010000000062000a87620002be82021704565b111562000b53575060008054600160a060020a031916736f485c8bf6fc43ea212e93bbf8ce046c7f1cb475179055600162000c21565b600062000b827320e12a1f859b3feae5fb2a0a32c18f5a65555bbf64010000000062000a87620002be82021704565b111562000bb8575060008054600160a060020a0319167320e12a1f859b3feae5fb2a0a32c18f5a65555bbf179055600162000c21565b600062000be77351efaf4c8b3c9afbd5ab9f4bbc82784ab6ef8faa64010000000062000a87620002be82021704565b111562000c1d575060008054600160a060020a0319167351efaf4c8b3c9afbd5ab9f4bbc82784ab6ef8faa179055600162000c21565b5060005b90565b60008054600160a060020a0316158062000c60575060005462000c5e90600160a060020a031664010000000062000a87620002be82021704565b155b1562000c825762000c80600064010000000062000a8b620002c282021704565b505b60008054600160a060020a0316906338cc483190604051602001526040518163ffffffff167c0100000000000000000000000000000000000000000000000000000000028152600401602060405180830381600087803b151562000ce557600080fd5b6102c65a03f1151562000cf757600080fd5b5050506040518051600154600160a060020a03908116911614905062000db65760008054600160a060020a0316906338cc483190604051602001526040518163ffffffff167c0100000000000000000000000000000000000000000000000000000000028152600401602060405180830381600087803b151562000d7a57600080fd5b6102c65a03f1151562000d8c57600080fd5b505050604051805160018054600160a060020a031916600160a060020a0392909216919091179055505b600154600160a060020a031663abaa5f3e6000604051602001526040518163ffffffff167c0100000000000000000000000000000000000000000000000000000000028152600401602060405180830381600087803b151562000e1857600080fd5b6102c65a03f1151562000e2a57600080fd5b505050604051805191505090565b62000e42620019d1565b838201600080828651101562000e5757600080fd5b505060208087019084015b86886020010182101562000e855781890151868201526020918201910162000e62565b5093979650505050505050565b600062000e9e620019d1565b600054600160a060020a0316158062000ed9575060005462000ed790600160a060020a031664010000000062000a87620002be82021704565b155b1562000efb5762000ef9600064010000000062000a8b620002c282021704565b505b60008054600160a060020a0316906338cc483190604051602001526040518163ffffffff167c0100000000000000000000000000000000000000000000000000000000028152600401602060405180830381600087803b151562000f5e57600080fd5b6102c65a03f1151562000f7057600080fd5b5050506040518051600154600160a060020a0390811691161490506200102f5760008054600160a060020a0316906338cc483190604051602001526040518163ffffffff167c0100000000000000000000000000000000000000000000000000000000028152600401602060405180830381600087803b151562000ff357600080fd5b6102c65a03f115156200100557600080fd5b505050604051805160018054600160a060020a031916600160a060020a0392909216919091179055505b60046040518059106200103f5750595b9080825280602002602001820160405280156200107957816020015b62001065620019d1565b8152602001906001900390816200105b5790505b5090508351816000815181106200108c57fe5b60209081029091010152836001602002015181600181518110620010ac57fe5b6020908102919091010152604084015181600281518110620010ca57fe5b6020908102919091010152606084015181600381518110620010e857fe5b602090810290910101526200110d85828564010000000062001efd6200114182021704565b95945050505050565b60009182526003602052604090912055565b60028180516200113d92916020019062001a13565b5050565b6000806200114e620019d1565b600054600160a060020a031615806200118957506000546200118790600160a060020a031664010000000062000a87620002be82021704565b155b15620011ab57620011a9600064010000000062000a8b620002c282021704565b505b60008054600160a060020a0316906338cc483190604051602001526040518163ffffffff167c0100000000000000000000000000000000000000000000000000000000028152600401602060405180830381600087803b15156200120e57600080fd5b6102c65a03f115156200122057600080fd5b5050506040518051600154600160a060020a039081169116149050620012df5760008054600160a060020a0316906338cc483190604051602001526040518163ffffffff167c0100000000000000000000000000000000000000000000000000000000028152600401602060405180830381600087803b1515620012a357600080fd5b6102c65a03f11515620012b557600080fd5b505050604051805160018054600160a060020a031916600160a060020a0392909216919091179055505b600154600160a060020a0316632ef3accc87866000604051602001526040518363ffffffff167c01000000000000000000000000000000000000000000000000000000000281526004018080602001838152602001828103825284818151815260200191508051906020019080838360005b838110156200136b57808201518382015260200162001351565b50505050905090810190601f168015620013995780820380516001836020036101000a031916815260200191505b509350505050602060405180830381600087803b1515620013b957600080fd5b6102c65a03f11515620013cb57600080fd5b5050506040518051925050670de0b6b3a76400003a850201821115620013f557600092506200157f565b6200140e85640100000000620022f66200158882021704565b600154909150600160a060020a031663c55c1cb683600089858983604051602001526040518663ffffffff167c0100000000000000000000000000000000000000000000000000000000028152600401808581526020018060200180602001848152602001838103835286818151815260200191508051906020019080838360005b83811015620014aa57808201518382015260200162001490565b50505050905090810190601f168015620014d85780820380516001836020036101000a031916815260200191505b50838103825285818151815260200191508051906020019080838360005b8381101562001510578082015183820152602001620014f6565b50505050905090810190601f1680156200153e5780820380516001836020036101000a031916815260200191505b5096505050505050506020604051808303818588803b15156200156057600080fd5b6125ee5a03f115156200157257600080fd5b5050505060405180519350505b50509392505050565b62001592620019d1565b6000806200159f620019d1565b6000806000620015ae620019d1565b60008060008b5199506000985089604051805910620015ca5750595b9080825280602002602001820160405280156200160457816020015b620015f0620019d1565b815260200190600190039081620015e65790505b509750600096505b8987101562001698578b87815181106200162257fe5b906020019060200201518888815181106200163957fe5b60209081029091010152601760018989815181106200165457fe5b9060200190602002015151038115156200166a57fe5b048888815181106200167857fe5b90602001906020020151510198909801600301976001909601956200160c565b600198909801976000955060808a01945088604051805910620016b85750595b818152601f19601f8301168101602001604052905093505b6001869011156200175e577f0100000000000000000000000000000000000000000000000000000000000000850286600181106200170a57fe5b1a7f0100000000000000000000000000000000000000000000000000000000000000028487815181106200173a57fe5b906020010190600160f860020a031916908160001a905350600190950194620016d0565b600096505b89871015620019c1577f5f000000000000000000000000000000000000000000000000000000000000008487815181106200179a57fe5b906020010190600160f860020a031916908160001a905350600190950194600092505b878781518110620017ca57fe5b90602001906020020151518310156200196b57601783061515620018c857601883898981518110620017f857fe5b90602001906020020151510310156200182b57828888815181106200181957fe5b9060200190602002015151036200182e565b60175b60400191508590505b80860360011115620018c8577f01000000000000000000000000000000000000000000000000000000000000008202818703600181106200187457fe5b1a7f010000000000000000000000000000000000000000000000000000000000000002848781518110620018a457fe5b906020010190600160f860020a031916908160001a90535060019095019462001837565b878781518110620018d557fe5b906020019060200201518381518110620018eb57fe5b01602001517f010000000000000000000000000000000000000000000000000000000000000090047f0100000000000000000000000000000000000000000000000000000000000000028487815181106200194257fe5b906020010190600160f860020a031916908160001a9053506001958601959290920191620017bd565b7fff000000000000000000000000000000000000000000000000000000000000008487815181106200199957fe5b906020010190600160f860020a031916908160001a9053506001968701969095019462001763565b50919a9950505050505050505050565b60206040519081016040526000815290565b60806040519081016040526004815b620019fc620019d1565b815260200190600190039081620019f25790505090565b828054600181600116156101000203166002900490600052602060002090601f016020900481019282601f1062001a5657805160ff191683800117855562001a86565b8280016001018555821562001a86579182015b8281111562001a8657825182559160200191906001019062001a69565b5062001a9492915062001a98565b5090565b62000c2191905b8082111562001a94576000815560010162001a9f565b6129358062001ac56000396000f30060606040526004361061003d5763ffffffff60e060020a60003504166327dc297e811461004257806338bbfa501461009a578063a2e6204514610132575b600080fd5b341561004d57600080fd5b610098600480359060446024803590810190830135806020601f8201819004810201604051908101604052818152929190602084018383808284375094965061013a95505050505050565b005b34156100a557600080fd5b610098600480359060446024803590810190830135806020601f8201819004810201604051908101604052818152929190602084018383808284378201915050505050509190803590602001908201803590602001908080601f01602080910402602001604051908101604052818152929190602084018383808284375094965061016c95505050505050565b6100986102f0565b6101688282600060405180591061014e5750595b818152601f19601f8301168101602001604052905061016c565b5050565b600080610177610304565b600160a060020a031633600160a060020a031614151561019657600080fd5b6101a18585856104b2565b60ff16156101ae576102e9565b7fab2f9e7e7e74d54a49792fd7ff57c497b14cd2bad49d7537937a5a527a50f0ac8460405160208082528190810183818151815260200191508051906020019080838360005b8381101561020c5780820151838201526020016101f4565b50505050905090810190601f1680156102395780820380516001836020036101000a031916815260200191505b509250505060405180910390a1610100915081846040518082805190602001908083835b6020831061027c5780518252601f19909201916020918201910161025d565b6001836020036101000a03801982511681845116179092525050509190910192506040915050519081900390208115156102b257fe5b0690507fb084d8f103616749e12a8d363f0b50f8bb8568b4086c093bd88140c74042c47a8160405190815260200160405180910390a15b5050505050565b6001600062030d40816102e98185846105dc565b60008054600160a060020a0316158061032f575060005461032d90600160a060020a0316610a87565b155b156103405761033e6000610a8b565b505b60008054600160a060020a0316906338cc483190604051602001526040518163ffffffff1660e060020a028152600401602060405180830381600087803b151561038957600080fd5b6102c65a03f1151561039a57600080fd5b5050506040518051600154600160a060020a03908116911614905061044a5760008054600160a060020a0316906338cc483190604051602001526040518163ffffffff1660e060020a028152600401602060405180830381600087803b151561040257600080fd5b6102c65a03f1151561041357600080fd5b50505060405180516001805473ffffffffffffffffffffffffffffffffffffffff1916600160a060020a0392909216919091179055505b600154600160a060020a031663c281d19e6000604051602001526040518163ffffffff1660e060020a028152600401602060405180830381600087803b151561049257600080fd5b6102c65a03f115156104a357600080fd5b50505060405180519150505b90565b600080826000815181106104c257fe5b016020015160f860020a900460f860020a02600160f860020a0319167f4c0000000000000000000000000000000000000000000000000000000000000014158061055457508260018151811061051457fe5b016020015160f860020a900460f860020a02600160f860020a0319167f500000000000000000000000000000000000000000000000000000000000000014155b8061059c57508260028151811061056757fe5b01602001517fff0000000000000000000000000000000000000000000000000000000000000060f860020a9182900482021614155b156105aa57600191506105d4565b6105bd8386866105b8610a9b565b610b43565b90508015156105cf57600291506105d4565b600091505b509392505050565b60006105e661266d565b6105ee61266d565b6105f661266d565b600061060061266d565b61060861266d565b61061061267f565b600061061a61266d565b60008c11801561062b575060208c11155b151561063657600080fd5b600a8d029c50600160405180591061064b5750595b818152601f19601f8301168101602001604052905098508b60f860020a028960008151811061067657fe5b906020010190600160f860020a031916908160001a905350602060405180591061069d5750595b818152601f19601f83011681016020016040529050975060206040518059106106c35750595b818152601f19601f8301168101602001604052905096506106e26110d1565b955060208852424118600143034018602089015260208752856020880152602060405180591061070f5750595b818152601f19601f8301168101602001604052905094508c6020860152600860405180591061073b5750595b818152601f19601f830116810160200160405290509350610762856018600887600061125f565b506080604051908101604052808981526020018a81526020018881526020018681525092506107c560408051908101604052600681527f72616e646f6d00000000000000000000000000000000000000000000000000006020820152848d6112b4565b915060086040518059106107d65750595b8181526020601f909201601f191681018201604052915084015160f860020a810460278301537e01000000000000000000000000000000000000000000000000000000000000810460268301537d0100000000000000000000000000000000000000000000000000000000008104602583015360e060020a810460248301537b01000000000000000000000000000000000000000000000000000000810460238301537a010000000000000000000000000000000000000000000000000000810460228301537901000000000000000000000000000000000000000000000000008104602183015378010000000000000000000000000000000000000000000000008104602083015350610a7782826020860151600287516000604051602001526040518082805190602001908083835b602083106109265780518252601f199092019160209182019101610907565b6001836020036101000a03801982511681845116808217855250505050505090500191505060206040518083038160008661646e5a03f1151561096857600080fd5b50506040518051905060408801516040518085805190602001908083835b602083106109a55780518252601f199092019160209182019101610986565b6001836020036101000a038019825116818451161790925250505091909101905084805190602001908083835b602083106109f15780518252601f1990920191602091820191016109d2565b6001836020036101000a038019825116818451161790925250505091909101848152602001905082805190602001908083835b60208310610a435780518252601f199092019160209182019101610a24565b6001836020036101000a038019825116818451161790925250505091909101955060409450505050505180910390206114d1565b509b9a5050505050505050505050565b3b90565b6000610a956114e3565b92915050565b610aa361266d565b60028054600181600116156101000203166002900480601f016020809104026020016040519081016040528092919081815260200182805460018160011615610100020316600290048015610b395780601f10610b0e57610100808354040283529160200191610b39565b820191906000526020600020905b815481529060010190602001808311610b1c57829003601f168201915b5050505050905090565b600080610b4e61266d565b610b5661266d565b610b5e61266d565b610b6661266d565b600080610b7161266d565b8c604581518110610b7e57fe5b016020015160f860020a9081900481020460660197506020604051805910610ba35750595b818152601f19601f830116810160200160405290509650610bc98d8960208a600061125f565b5060028a8d6000604051602001526040518083805190602001908083835b60208310610c065780518252601f199092019160209182019101610be7565b6001836020036101000a0380198251168184511617909252505050919091019283525050602090810191506040518083038160008661646e5a03f11515610c4c57600080fd5b505060405180519050604051908152602001604051908190039020876040518082805190602001908083835b60208310610c975780518252601f199092019160209182019101610c78565b6001836020036101000a038019825116818451161790925250505091909101925060409150505190819003902014610cd257600098506110c1565b8c604a890181518110610ce157fe5b016020015160f860020a900460f860020a0260f860020a9004600201604051805910610d0a5750595b818152601f19601f830116810160200160405290509550610d338d89604901885189600061125f565b50610deb6002876000604051602001526040518082805190602001908083835b60208310610d725780518252601f199092019160209182019101610d53565b6001836020036101000a03801982511681845116808217855250505050505090500191505060206040518083038160008661646e5a03f11515610db457600080fd5b5050604051805190508c8f60288c0181518110610dcd57fe5b016020015160f860020a900460f860020a0260f860020a9004611862565b1515610dfa57600098506110c1565b6029604051805910610e095750595b818152601f19601f830116810160200160405290509450610e328d89602001602988600061125f565b5060408051805910610e415750595b818152601f19601f830116810160200160405290509350855188602001602901016041019250610e798d60408503604087600061125f565b506002846000604051602001526040518082805190602001908083835b60208310610eb55780518252601f199092019160209182019101610e96565b6001836020036101000a03801982511681845116808217855250505050505090500191505060206040518083038160008661646e5a03f11515610ef757600080fd5b505060405180519050915084826040518083805190602001908083835b60208310610f335780518252601f199092019160209182019101610f14565b6001836020036101000a0380198251168184511617909252505050919091019283525050602001905060405190819003902060008d8152600360205260409020541415610f8e5760008c815260036020526040812055610f97565b600098506110c1565b6049604051805910610fa65750595b818152601f19601f830116810160200160405290509050610fcc8d89604984600061125f565b5061105d6002826000604051602001526040518082805190602001908083835b6020831061100b5780518252601f199092019160209182019101610fec565b6001836020036101000a03801982511681845116808217855250505050505090500191505060206040518083038160008661646e5a03f1151561104d57600080fd5b50506040518051905087866118e8565b151561106c57600098506110c1565b60008281526004602052604090205460ff1615156110ac5761108e8d84611b01565b6000838152600460205260409020805460ff19169115159190911790555b60008281526004602052604090205460ff1698505b5050505050505050949350505050565b60008054600160a060020a031615806110fc57506000546110fa90600160a060020a0316610a87565b155b1561110d5761110b6000610a8b565b505b60008054600160a060020a0316906338cc483190604051602001526040518163ffffffff1660e060020a028152600401602060405180830381600087803b151561115657600080fd5b6102c65a03f1151561116757600080fd5b5050506040518051600154600160a060020a0390811691161490506112175760008054600160a060020a0316906338cc483190604051602001526040518163ffffffff1660e060020a028152600401602060405180830381600087803b15156111cf57600080fd5b6102c65a03f115156111e057600080fd5b50505060405180516001805473ffffffffffffffffffffffffffffffffffffffff1916600160a060020a0392909216919091179055505b600154600160a060020a031663abaa5f3e6000604051602001526040518163ffffffff1660e060020a028152600401602060405180830381600087803b151561049257600080fd5b61126761266d565b838201600080828651101561127b57600080fd5b505060208087019084015b8688602001018210156112a757818901518682015260209182019101611286565b5093979650505050505050565b60006112be61266d565b600054600160a060020a031615806112e857506000546112e690600160a060020a0316610a87565b155b156112f9576112f76000610a8b565b505b60008054600160a060020a0316906338cc483190604051602001526040518163ffffffff1660e060020a028152600401602060405180830381600087803b151561134257600080fd5b6102c65a03f1151561135357600080fd5b5050506040518051600154600160a060020a0390811691161490506114035760008054600160a060020a0316906338cc483190604051602001526040518163ffffffff1660e060020a028152600401602060405180830381600087803b15156113bb57600080fd5b6102c65a03f115156113cc57600080fd5b50505060405180516001805473ffffffffffffffffffffffffffffffffffffffff1916600160a060020a0392909216919091179055505b60046040518059106114125750595b90808252806020026020018201604052801561144857816020015b61143561266d565b81526020019060019003908161142d5790505b50905083518160008151811061145a57fe5b6020908102909101015283600160200201518160018151811061147957fe5b602090810291909101015260408401518160028151811061149657fe5b60209081029190910101526060840151816003815181106114b357fe5b602090810290910101526114c8858285611efd565b95945050505050565b60009182526003602052604090912055565b600080611503731d3b2638a7cc9f2cb3d298a3da7a90b67e5506ed610a87565b1115611580576000805473ffffffffffffffffffffffffffffffffffffffff1916731d3b2638a7cc9f2cb3d298a3da7a90b67e5506ed17905561157860408051908101604052600b81527f6574685f6d61696e6e657400000000000000000000000000000000000000000060208201526122a3565b5060016104af565b600061159f73c03a2615d5efaf5f49f60b7bb6583eaec212fdf1610a87565b1115611614576000805473ffffffffffffffffffffffffffffffffffffffff191673c03a2615d5efaf5f49f60b7bb6583eaec212fdf117905561157860408051908101604052600c81527f6574685f726f707374656e33000000000000000000000000000000000000000060208201526122a3565b600061163373b7a07bcf2ba2f2703b24c0691b5278999c59ac7e610a87565b11156116a8576000805473ffffffffffffffffffffffffffffffffffffffff191673b7a07bcf2ba2f2703b24c0691b5278999c59ac7e17905561157860408051908101604052600981527f6574685f6b6f76616e000000000000000000000000000000000000000000000060208201526122a3565b60006116c773146500cfd35b22e4a392fe0adc06de1a1368ed48610a87565b111561173c576000805473ffffffffffffffffffffffffffffffffffffffff191673146500cfd35b22e4a392fe0adc06de1a1368ed4817905561157860408051908101604052600b81527f6574685f72696e6b65627900000000000000000000000000000000000000000060208201526122a3565b600061175b736f485c8bf6fc43ea212e93bbf8ce046c7f1cb475610a87565b111561179c57506000805473ffffffffffffffffffffffffffffffffffffffff1916736f485c8bf6fc43ea212e93bbf8ce046c7f1cb47517905560016104af565b60006117bb7320e12a1f859b3feae5fb2a0a32c18f5a65555bbf610a87565b11156117fc57506000805473ffffffffffffffffffffffffffffffffffffffff19167320e12a1f859b3feae5fb2a0a32c18f5a65555bbf17905560016104af565b600061181b7351efaf4c8b3c9afbd5ab9f4bbc82784ab6ef8faa610a87565b111561185c57506000805473ffffffffffffffffffffffffffffffffffffffff19167351efaf4c8b3c9afbd5ab9f4bbc82784ab6ef8faa17905560016104af565b50600090565b60006001818385511461187457600080fd5b5060005b838110156118db5784818151811061188c57fe5b016020015160f860020a900460f860020a02600160f860020a03191686826020811015156118b657fe5b1a60f860020a02600160f860020a0319161415156118d357600091505b600101611878565b8192505b50509392505050565b60008060008060006118f861266d565b600061190261266d565b60206040518059106119115750595b8181526020601f909201601f19168101820160405293508a60038151811061193557fe5b016020015160f860020a900460f860020a0260f860020a90040360040191506119638a83602086600061125f565b925060206040518059106119745750595b818152601f19601f8301168101602001604052905090506022820191506119cc8a60208c60018603815181106119a657fe5b016020015160f860020a900460f860020a0260f860020a9004038401602084600061125f565b905060208301519450602081015193506119e98b601b87876122b6565b9097509550600160a060020a038616896040518082805190602001908083835b60208310611a285780518252601f199092019160209182019101611a09565b6001836020036101000a0380198251168184511617909252505050919091019250604091505051908190039020600160a060020a03161415611a6d5760019750611af3565b611a7a8b601c87876122b6565b9097509550600160a060020a038616896040518082805190602001908083835b60208310611ab95780518252601f199092019160209182019101611a9a565b6001836020036101000a0380198251168184511617909252505050919091019250604091505051908190039020600160a060020a03161497505b505050505050509392505050565b600080611b0c61266d565b611b1461266d565b611b1c61266d565b611b2461266d565b611b2c61266d565b611b3461266d565b611b3c61266d565b8a8a60010181518110611b4b57fe5b016020015160f860020a900460f860020a0260f860020a9004600201604051805910611b745750595b818152601f19601f830116810160200160405290509650611b9a8b8b89518a600061125f565b5060408051805910611ba95750595b818152601f19601f830116810160200160405290509550611bd08b6004604089600061125f565b506062604051805910611be05750595b818152601f19601f83011681016020016040529050945060f860020a85600081518110611c0957fe5b906020010190600160f860020a031916908160001a905350611c338b60418c03604188600161125f565b506040805190810160405280602081526020017ffd94fa71bc0ba10d39d464d0d8f465efeef0a2764e3887fcc9df41ded20f505c8152509350611c7c846000602088604261125f565b50611d0d6002866000604051602001526040518082805190602001908083835b60208310611cbb5780518252601f199092019160209182019101611c9c565b6001836020036101000a03801982511681845116808217855250505050505090500191505060206040518083038160008661646e5a03f11515611cfd57600080fd5b50506040518051905088886118e8565b9750871515611d1f5760009850611eef565b606060405190810160405280604081526020017f7fb956469c5c9b89840d55b43537e66a98dd4811ea0a27224272c2e5622911e881526020017f537a2f8e86a46baec82864e98dd01e9ccc2f8bc5dfc9cbe5a91a290498dd96e481525092506042604051805910611d8d5750595b818152601f19601f8301168101602001604052905091507ffe0000000000000000000000000000000000000000000000000000000000000082600081518110611dd257fe5b906020010190600160f860020a031916908160001a905350611dfa8b6003604185600161125f565b508a604581518110611e0857fe5b016020015160f860020a900460f860020a0260f860020a9004600201604051805910611e315750595b818152601f19601f830116810160200160405290509050611e588b6044835184600061125f565b50611ee96002836000604051602001526040518082805190602001908083835b60208310611e975780518252601f199092019160209182019101611e78565b6001836020036101000a03801982511681845116808217855250505050505090500191505060206040518083038160008661646e5a03f11515611ed957600080fd5b50506040518051905082856118e8565b97508798505b505050505050505092915050565b600080611f0861266d565b600054600160a060020a03161580611f325750600054611f3090600160a060020a0316610a87565b155b15611f4357611f416000610a8b565b505b60008054600160a060020a0316906338cc483190604051602001526040518163ffffffff1660e060020a028152600401602060405180830381600087803b1515611f8c57600080fd5b6102c65a03f11515611f9d57600080fd5b5050506040518051600154600160a060020a03908116911614905061204d5760008054600160a060020a0316906338cc483190604051602001526040518163ffffffff1660e060020a028152600401602060405180830381600087803b151561200557600080fd5b6102c65a03f1151561201657600080fd5b50505060405180516001805473ffffffffffffffffffffffffffffffffffffffff1916600160a060020a0392909216919091179055505b600154600160a060020a0316632ef3accc87866000604051602001526040518363ffffffff1660e060020a0281526004018080602001838152602001828103825284818151815260200191508051906020019080838360005b838110156120be5780820151838201526020016120a6565b50505050905090810190601f1680156120eb5780820380516001836020036101000a031916815260200191505b509350505050602060405180830381600087803b151561210a57600080fd5b6102c65a03f1151561211b57600080fd5b5050506040518051925050670de0b6b3a76400003a85020182111561214357600092506118df565b61214c856122f6565b600154909150600160a060020a031663c55c1cb683600089858983604051602001526040518663ffffffff1660e060020a028152600401808581526020018060200180602001848152602001838103835286818151815260200191508051906020019080838360005b838110156121cd5780820151838201526020016121b5565b50505050905090810190601f1680156121fa5780820380516001836020036101000a031916815260200191505b50838103825285818151815260200191508051906020019080838360005b83811015612230578082015183820152602001612218565b50505050905090810190601f16801561225d5780820380516001836020036101000a031916815260200191505b5096505050505050506020604051808303818588803b151561227e57600080fd5b6125ee5a03f1151561228f57600080fd5b505050506040518051979650505050505050565b60028180516101689291602001906126ac565b60008060008060405188815287602082015286604082015285606082015260208160808360006001610bb8f1925080519299929850919650505050505050565b6122fe61266d565b60008061230961266d565b600080600061231661266d565b60008060008b51995060009850896040518059106123315750595b90808252806020026020018201604052801561236757816020015b61235461266d565b81526020019060019003908161234c5790505b509750600096505b898710156123f4578b878151811061238357fe5b9060200190602002015188888151811061239957fe5b60209081029091010152601760018989815181106123b357fe5b9060200190602002015151038115156123c857fe5b048888815181106123d557fe5b906020019060200201515101989098016003019760019096019561236f565b600198909801976000955060808a019450886040518059106124135750595b818152601f19601f8301168101602001604052905093505b60018690111561247d5760f860020a8502866001811061244757fe5b1a60f860020a0284878151811061245a57fe5b906020010190600160f860020a031916908160001a90535060019095019461242b565b600096505b8987101561265d577f5f000000000000000000000000000000000000000000000000000000000000008487815181106124b757fe5b906020010190600160f860020a031916908160001a905350600190950194600092505b8787815181106124e657fe5b9060200190602002015151831015612609576017830615156125a25760188389898151811061251157fe5b9060200190602002015151031015612541578288888151811061253057fe5b906020019060200201515103612544565b60175b60400191508590505b808603600111156125a25760f860020a82028187036001811061256c57fe5b1a60f860020a0284878151811061257f57fe5b906020010190600160f860020a031916908160001a90535060019095019461254d565b8787815181106125ae57fe5b9060200190602002015183815181106125c357fe5b016020015160f860020a900460f860020a028487815181106125e157fe5b906020010190600160f860020a031916908160001a90535060019586019592909201916124da565b7fff0000000000000000000000000000000000000000000000000000000000000084878151811061263657fe5b906020010190600160f860020a031916908160001a90535060019687019690950194612482565b50919a9950505050505050505050565b60206040519081016040526000815290565b60806040519081016040526004815b61269661266d565b81526020019060019003908161268e5790505090565b828054600181600116156101000203166002900490600052602060002090601f016020900481019282601f106126ed57805160ff191683800117855561271a565b8280016001018555821561271a579182015b8281111561271a5782518255916020019190600101906126ff565b5061272692915061272a565b5090565b6104af91905b808211156127265760008155600101612730565b600054600160a060020a0316158061276e575060005461276c90600160a060020a0316610a87565b155b1561277f5761277d6000610a8b565b505b60008054600160a060020a0316906338cc483190604051602001526040518163ffffffff1660e060020a028152600401602060405180830381600087803b15156127c857600080fd5b6102c65a03f115156127d957600080fd5b5050506040518051600154600160a060020a0390811691161490506128895760008054600160a060020a0316906338cc483190604051602001526040518163ffffffff1660e060020a028152600401602060405180830381600087803b151561284157600080fd5b6102c65a03f1151561285257600080fd5b50505060405180516001805473ffffffffffffffffffffffffffffffffffffffff1916600160a060020a0392909216919091179055505b600154600160a060020a031663688dcfd78260405160e060020a63ffffffff84160281527fff000000000000000000000000000000000000000000000000000000000000009091166004820152602401600060405180830381600087803b15156128f257600080fd5b6102c65a03f1151561290357600080fd5b505050505600a165627a7a723058204fe64d6ad98f8a9fcfcf87fc724bc2595653e87d09b953ffbc239f72873f22c10029",
  "source": "/*\n   Oraclize random-datasource example\n\n   This contract uses the random-datasource to securely generate off-chain N random bytes\n*/\n\npragma solidity ^0.4.11;\n\nimport \"./OraclizeAPI.sol\";\n\ncontract RandomExample is usingOraclize {\n\n    event newRandomNumber_bytes(bytes);\n    event newRandomNumber_uint(uint);\n\n    function RandomExample() {\n        oraclize_setProof(proofType_Ledger); // sets the Ledger authenticity proof in the constructor\n        update(); // let's ask for N random bytes immediately when the contract is created!\n    }\n\n    // the callback function is called by Oraclize when the result is ready\n    // the oraclize_randomDS_proofVerify modifier prevents an invalid proof to execute this function code:\n    // the proof validity is fully verified on-chain\n    function __callback(bytes32 _queryId, string _result, bytes _proof)\n    {\n        if (msg.sender != oraclize_cbAddress()) throw;\n\n        if (oraclize_randomDS_proofVerify__returnCode(_queryId, _result, _proof) != 0) {\n            // the proof verification has failed, do we need to take any action here? (depends on the use case)\n        } else {\n            // the proof verification has passed\n            // now that we know that the random number was safely generated, let's use it..\n\n            newRandomNumber_bytes(bytes(_result)); // this is the resulting random number (bytes)\n\n            // for simplicity of use, let's also convert the random bytes to uint if we need\n            uint maxRange = 2**(8* 1); // this is the highest uint we want to get. It should never be greater than 2^(8*N), where N is the number of random bytes we had asked the datasource to return\n            uint randomNumber = uint(sha3(_result)) % maxRange; // this is an efficient way to get the uint out in the [0, maxRange] range\n\n            newRandomNumber_uint(randomNumber); // this is the resulting random number (uint)\n        }\n    }\n\n    function update() payable {\n        uint N = 1; // number of random bytes we want the datasource to return\n        uint delay = 0; // number of seconds to wait before the execution takes place\n        uint callbackGas = 200000; // amount of gas we want Oraclize to set for the callback function\n        bytes32 queryId = oraclize_newRandomDSQuery(delay, N, callbackGas); // this function internally generates the correct oraclize_query and returns its queryId\n    }\n\n}\n",
  "sourcePath": "/Users/j/Coding/cryptokittybox/contracts/RandomExample.sol",
  "compiler": {
    "name": "solc",
    "version": "0.4.19+commit.c4cbbb05.Emscripten.clang"
  },
  "schemaVersion": "1.0.1",
  "updatedAt": "2018-03-02T06:47:14.037Z"
}