{
  "contractName": "Random",
  "abi": [
    {
      "constant": true,
      "inputs": [],
      "name": "alive",
      "outputs": [
        {
          "name": "",
          "type": "uint256"
        }
      ],
      "payable": false,
      "stateMutability": "view",
      "type": "function"
    },
    {
      "constant": false,
      "inputs": [],
      "name": "observe",
      "outputs": [],
      "payable": false,
      "stateMutability": "nonpayable",
      "type": "function"
    }
  ],
  "bytecode": "0x6060604052341561000f57600080fd5b60c48061001d6000396000f30060606040526004361060485763ffffffff7c010000000000000000000000000000000000000000000000000000000060003504166314fc78fc8114604d578063753899e914605f575b600080fd5b3415605757600080fd5b605d6081565b005b3415606957600080fd5b606f6092565b60405190815260200160405180910390f35b6001600a4360001901400601600055565b600054815600a165627a7a723058205b365f492c1970627c4216efeea037149363d68b2651c4830eb1693912d1ba790029",
  "source": "pragma solidity ^0.4.18;\ncontract Random {\n    uint public alive;\n\n    function observe() public {\n        uint random_number = uint(block.blockhash(block.number-1))%10 + 1;\n        alive = random_number;\n    }\n}\n",
  "sourcePath": "/Users/j/Coding/cryptokittybox/contracts/Random.sol",
  "compiler": {
    "name": "solc",
    "version": "0.4.19+commit.c4cbbb05.Emscripten.clang"
  },
  "schemaVersion": "1.0.1",
  "updatedAt": "2018-03-02T18:02:14.075Z"
}