{
  "contractName": "Random",
  "abi": [
    {
      "constant": true,
      "inputs": [
        {
          "name": "",
          "type": "uint256"
        }
      ],
      "name": "catState",
      "outputs": [
        {
          "name": "",
          "type": "string"
        }
      ],
      "payable": false,
      "stateMutability": "view",
      "type": "function"
    },
    {
      "constant": true,
      "inputs": [],
      "name": "lastCat",
      "outputs": [
        {
          "name": "",
          "type": "string"
        }
      ],
      "payable": false,
      "stateMutability": "view",
      "type": "function"
    },
    {
      "constant": true,
      "inputs": [
        {
          "name": "",
          "type": "uint256"
        }
      ],
      "name": "sematary",
      "outputs": [
        {
          "name": "",
          "type": "uint256"
        }
      ],
      "payable": false,
      "stateMutability": "view",
      "type": "function"
    },
    {
      "constant": true,
      "inputs": [],
      "name": "getListLength",
      "outputs": [
        {
          "name": "",
          "type": "uint256"
        }
      ],
      "payable": false,
      "stateMutability": "view",
      "type": "function"
    },
    {
      "constant": true,
      "inputs": [],
      "name": "mostRecentlyDeceased",
      "outputs": [
        {
          "name": "",
          "type": "uint256"
        }
      ],
      "payable": false,
      "stateMutability": "view",
      "type": "function"
    },
    {
      "constant": false,
      "inputs": [
        {
          "name": "catId",
          "type": "uint256"
        }
      ],
      "name": "observe",
      "outputs": [],
      "payable": false,
      "stateMutability": "nonpayable",
      "type": "function"
    }
  ],
  "bytecode": "0x6060604052341561000f57600080fd5b6105528061001e6000396000f3006060604052600436106100775763ffffffff7c0100000000000000000000000000000000000000000000000000000000600035041663767f60da811461007c57806380020513146100a1578063b65c531b146100b9578063d7aa6080146100cc578063df7620bb14610159578063fb9b04cb1461016c575b600080fd5b341561008757600080fd5b61008f610182565b60405190815260200160405180910390f35b34156100ac57600080fd5b6100b76004356101aa565b005b34156100c457600080fd5b61008f61032e565b34156100d757600080fd5b6100e2600435610334565b60405160208082528190810183818151815260200191508051906020019080838360005b8381101561011e578082015183820152602001610106565b50505050905090810190601f16801561014b5780820380516001836020036101000a031916815260200191505b509250505060405180910390f35b341561016457600080fd5b6100e26103e4565b341561017757600080fd5b61008f60043561044f565b6001805460009190600019810190811061019857fe5b90600052602060002090015490505b90565b6001600a436000190140068101906002820615908114156102695760408051908101604052600581527f416c6976650000000000000000000000000000000000000000000000000000006020820152600090805161020c92916020019061046e565b50604080519081016040908152600582527f416c697665000000000000000000000000000000000000000000000000000000602080840191909152600086815260029091522090805161026392916020019061046e565b50610329565b60408051908101604052600481527f4465616400000000000000000000000000000000000000000000000000000000602082015260009080516102b092916020019061046e565b50604080519081016040908152600582527f416c697665000000000000000000000000000000000000000000000000000000602080840191909152600086815260029091522090805161030792916020019061046e565b506001805480820161031983826104ec565b5060009182526020909120018390555b505050565b60015490565b60026020528060005260406000206000915090508054600181600116156101000203166002900480601f0160208091040260200160405190810160405280929190818152602001828054600181600116156101000203166002900480156103dc5780601f106103b1576101008083540402835291602001916103dc565b820191906000526020600020905b8154815290600101906020018083116103bf57829003601f168201915b505050505081565b60008054600181600116156101000203166002900480601f0160208091040260200160405190810160405280929190818152602001828054600181600116156101000203166002900480156103dc5780601f106103b1576101008083540402835291602001916103dc565b600180548290811061045d57fe5b600091825260209091200154905081565b828054600181600116156101000203166002900490600052602060002090601f016020900481019282601f106104af57805160ff19168380011785556104dc565b828001600101855582156104dc579182015b828111156104dc5782518255916020019190600101906104c1565b506104e892915061050c565b5090565b815481835581811511610329576000838152602090206103299181019083015b6101a791905b808211156104e857600081556001016105125600a165627a7a7230582000ffe27a679759a2c550e0cec077e4b6bee8027c69aa89ad236d6b2f01183dd20029",
  "source": "pragma solidity ^0.4.18;\ncontract Random {\n  string public lastCat;\n  uint[] public sematary;\n\n  mapping (uint => string) public catState;\n\n  function getListLength() public view returns (uint) {\n    return sematary.length;\n  }\n\n  function mostRecentlyDeceased() public view returns (uint) {\n    return sematary[(sematary.length - 1)];\n  }\n\n  function observe(uint catId) public {\n    uint random_number = uint(block.blockhash(block.number-1))%10 + 1;\n    bool divis = bool((random_number%2) == 0);\n    if (divis == true) {\n      lastCat = 'Alive';\n      catState[catId] = 'Alive';\n    } else {\n      lastCat = 'Dead';\n      catState[catId] = 'Alive';\n      sematary.push(catId);\n    }\n  }\n}\n",
  "sourcePath": "/Users/j/Coding/cryptokittybox/contracts/Random.sol",
  "compiler": {
    "name": "solc",
    "version": "0.4.19+commit.c4cbbb05.Emscripten.clang"
  },
  "schemaVersion": "1.0.1",
  "updatedAt": "2018-03-10T00:12:07.843Z"
}