{
  "contractName": "Random",
  "abi": [
    {
      "constant": true,
      "inputs": [],
      "name": "lastCat",
      "outputs": [
        {
          "name": "",
          "type": "string"
        }
      ],
      "payable": false,
      "stateMutability": "view",
      "type": "function"
    },
    {
      "constant": true,
      "inputs": [
        {
          "name": "",
          "type": "uint256"
        }
      ],
      "name": "sematary",
      "outputs": [
        {
          "name": "",
          "type": "uint256"
        }
      ],
      "payable": false,
      "stateMutability": "view",
      "type": "function"
    },
    {
      "constant": true,
      "inputs": [],
      "name": "getListLength",
      "outputs": [
        {
          "name": "",
          "type": "uint256"
        }
      ],
      "payable": false,
      "stateMutability": "view",
      "type": "function"
    },
    {
      "constant": true,
      "inputs": [],
      "name": "mostRecentlyDeceased",
      "outputs": [
        {
          "name": "",
          "type": "uint256"
        }
      ],
      "payable": false,
      "stateMutability": "view",
      "type": "function"
    },
    {
      "constant": false,
      "inputs": [
        {
          "name": "catId",
          "type": "uint256"
        }
      ],
      "name": "observe",
      "outputs": [],
      "payable": false,
      "stateMutability": "nonpayable",
      "type": "function"
    }
  ],
  "bytecode": "0x6060604052341561000f57600080fd5b6104068061001e6000396000f30060606040526004361061006c5763ffffffff7c0100000000000000000000000000000000000000000000000000000000600035041663767f60da81146100715780638002051314610096578063b65c531b146100ae578063df7620bb146100c1578063fb9b04cb1461014b575b600080fd5b341561007c57600080fd5b610084610161565b60405190815260200160405180910390f35b34156100a157600080fd5b6100ac600435610189565b005b34156100b957600080fd5b61008461025f565b34156100cc57600080fd5b6100d4610265565b60405160208082528190810183818151815260200191508051906020019080838360005b838110156101105780820151838201526020016100f8565b50505050905090810190601f16801561013d5780820380516001836020036101000a031916815260200191505b509250505060405180910390f35b341561015657600080fd5b610084600435610303565b6001805460009190600019810190811061017757fe5b90600052602060002090015490505b90565b6001600a436000190140068101906002820615908114156101f15760408051908101604052600581527f416c697665000000000000000000000000000000000000000000000000000000602082015260009080516101eb929160200190610322565b5061025a565b60408051908101604052600481527f446561640000000000000000000000000000000000000000000000000000000060208201526000908051610238929160200190610322565b506001805480820161024a83826103a0565b5060009182526020909120018390555b505050565b60015490565b60008054600181600116156101000203166002900480601f0160208091040260200160405190810160405280929190818152602001828054600181600116156101000203166002900480156102fb5780601f106102d0576101008083540402835291602001916102fb565b820191906000526020600020905b8154815290600101906020018083116102de57829003601f168201915b505050505081565b600180548290811061031157fe5b600091825260209091200154905081565b828054600181600116156101000203166002900490600052602060002090601f016020900481019282601f1061036357805160ff1916838001178555610390565b82800160010185558215610390579182015b82811115610390578251825591602001919060010190610375565b5061039c9291506103c0565b5090565b81548183558181151161025a5760008381526020902061025a9181019083015b61018691905b8082111561039c57600081556001016103c65600a165627a7a7230582060b85938e40b762130c474b16ebc66f714437410d0379308c2d7fe3c8a00eff40029",
  "source": "pragma solidity ^0.4.18;\ncontract Random {\n  string public lastCat;\n  uint[] public sematary;\n\n  function getListLength() public view returns (uint) {\n    return sematary.length;\n  }\n\n  function mostRecentlyDeceased() public view returns (uint) {\n    return sematary[(sematary.length - 1)];\n  }\n\n  function observe(uint catId) public {\n    uint random_number = uint(block.blockhash(block.number-1))%10 + 1;\n    bool divis = bool((random_number%2) == 0);\n    if (divis == true) {\n      lastCat = 'Alive';\n    } else {\n      lastCat = 'Dead';\n      sematary.push(catId);\n    }\n  }\n}\n",
  "sourcePath": "/Users/j/Coding/cryptokittybox/contracts/Random.sol",
  "compiler": {
    "name": "solc",
    "version": "0.4.19+commit.c4cbbb05.Emscripten.clang"
  },
  "schemaVersion": "1.0.1",
  "updatedAt": "2018-03-09T22:17:21.591Z"
}