{
  "contractName": "Ransom",
  "abi": [
    {
      "constant": true,
      "inputs": [
        {
          "name": "",
          "type": "uint256"
        }
      ],
      "name": "safe",
      "outputs": [
        {
          "name": "",
          "type": "uint256"
        }
      ],
      "payable": false,
      "stateMutability": "view",
      "type": "function"
    },
    {
      "constant": true,
      "inputs": [],
      "name": "catnapper",
      "outputs": [
        {
          "name": "",
          "type": "address"
        }
      ],
      "payable": false,
      "stateMutability": "view",
      "type": "function"
    },
    {
      "constant": true,
      "inputs": [],
      "name": "price",
      "outputs": [
        {
          "name": "",
          "type": "uint256"
        }
      ],
      "payable": false,
      "stateMutability": "view",
      "type": "function"
    },
    {
      "anonymous": false,
      "inputs": [
        {
          "indexed": false,
          "name": "backer",
          "type": "address"
        },
        {
          "indexed": false,
          "name": "amount",
          "type": "uint256"
        },
        {
          "indexed": false,
          "name": "catId",
          "type": "uint256"
        }
      ],
      "name": "PayRansom",
      "type": "event"
    }
  ],
  "bytecode": "0x6060604052341561000f57600080fd5b61013f8061001e6000396000f3006060604052600436106100565763ffffffff7c0100000000000000000000000000000000000000000000000000000000600035041663016f94b0811461005b5780634c18076114610083578063a035b1fe146100bf575b600080fd5b341561006657600080fd5b6100716004356100d2565b60405190815260200160405180910390f35b341561008e57600080fd5b6100966100f1565b60405173ffffffffffffffffffffffffffffffffffffffff909116815260200160405180910390f35b34156100ca57600080fd5b61007161010d565b60028054829081106100e057fe5b600091825260209091200154905081565b60005473ffffffffffffffffffffffffffffffffffffffff1681565b600154815600a165627a7a72305820fd1146136be7e55446a135318633d554860b5f357726b61330dcf7dc488bfeef0029",
  "source": "pragma solidity ^0.4.18;\ncontract Ransom {\n  address public catnapper;\n  uint public price;\n  uint[] public safe;\n\n  event PayRansom(address backer, uint amount, uint catId);\n\n  /* Constructor function */\n  /*\n  function Ransom (\n    address ifSuccessfulSendTo,\n    uint ransomPrice\n  ) {\n    catnapper = if ifSuccessfulSendTo;\n    price = ransomPrice * 1 ether;\n  }\n  */\n}\n",
  "sourcePath": "/Users/j/Coding/cryptokittybox/contracts/Ransom.sol",
  "compiler": {
    "name": "solc",
    "version": "0.4.19+commit.c4cbbb05.Emscripten.clang"
  },
  "schemaVersion": "1.0.1",
  "updatedAt": "2018-03-03T22:05:07.989Z"
}