{
  "contractName": "Ransom",
  "abi": [
    {
      "constant": true,
      "inputs": [
        {
          "name": "",
          "type": "uint256"
        }
      ],
      "name": "safe",
      "outputs": [
        {
          "name": "",
          "type": "uint256"
        }
      ],
      "payable": false,
      "stateMutability": "view",
      "type": "function"
    },
    {
      "constant": true,
      "inputs": [],
      "name": "catnapper",
      "outputs": [
        {
          "name": "",
          "type": "address"
        }
      ],
      "payable": false,
      "stateMutability": "view",
      "type": "function"
    },
    {
      "constant": true,
      "inputs": [],
      "name": "mostRecentlyDeceased",
      "outputs": [
        {
          "name": "",
          "type": "uint256"
        }
      ],
      "payable": false,
      "stateMutability": "view",
      "type": "function"
    },
    {
      "constant": false,
      "inputs": [
        {
          "name": "catId",
          "type": "uint256"
        }
      ],
      "name": "observe",
      "outputs": [],
      "payable": false,
      "stateMutability": "nonpayable",
      "type": "function"
    },
    {
      "constant": true,
      "inputs": [],
      "name": "price",
      "outputs": [
        {
          "name": "",
          "type": "uint256"
        }
      ],
      "payable": false,
      "stateMutability": "view",
      "type": "function"
    },
    {
      "constant": true,
      "inputs": [],
      "name": "getListLength",
      "outputs": [
        {
          "name": "",
          "type": "uint256"
        }
      ],
      "payable": false,
      "stateMutability": "view",
      "type": "function"
    },
    {
      "anonymous": false,
      "inputs": [
        {
          "indexed": false,
          "name": "backer",
          "type": "address"
        },
        {
          "indexed": false,
          "name": "amount",
          "type": "uint256"
        },
        {
          "indexed": false,
          "name": "catId",
          "type": "uint256"
        }
      ],
      "name": "PayRansom",
      "type": "event"
    }
  ],
  "bytecode": "0x6060604052341561000f57600080fd5b6104208061001e6000396000f3006060604052600436106100775763ffffffff7c0100000000000000000000000000000000000000000000000000000000600035041663016f94b0811461007c5780634c180761146100a4578063767f60da146100e057806380020513146100f3578063a035b1fe1461010b578063b65c531b1461011e575b600080fd5b341561008757600080fd5b610092600435610131565b60405190815260200160405180910390f35b34156100af57600080fd5b6100b7610150565b60405173ffffffffffffffffffffffffffffffffffffffff909116815260200160405180910390f35b34156100eb57600080fd5b61009261016c565b34156100fe57600080fd5b610109600435610194565b005b341561011657600080fd5b610092610313565b341561012957600080fd5b610092610319565b600580548290811061013f57fe5b600091825260209091200154905081565b60035473ffffffffffffffffffffffffffffffffffffffff1681565b6001805460009190600019810190811061018257fe5b90600052602060002090015490505b90565b600061019e61031f565b90506001811515141561024f5760408051908101604052600581527f416c697665000000000000000000000000000000000000000000000000000000602082015260009080516101f2929160200190610337565b50604080519081016040908152600582527f416c6976650000000000000000000000000000000000000000000000000000006020808401919091526000858152600290915220908051610249929160200190610337565b5061030f565b60408051908101604052600481527f446561640000000000000000000000000000000000000000000000000000000060208201526000908051610296929160200190610337565b50604080519081016040908152600582527f416c69766500000000000000000000000000000000000000000000000000000060208084019190915260008581526002909152209080516102ed929160200190610337565b50600180548082016102ff83826103b1565b5060009182526020909120018290555b5050565b60045481565b60015490565b60026001600a436000190140060190810615905b5090565b828054600181600116156101000203166002900490600052602060002090601f016020900481019282601f1061037857805160ff19168380011785556103a5565b828001600101855582156103a5579182015b828111156103a557825182559160200191906001019061038a565b506103339291506103da565b8154818355818115116103d5576000838152602090206103d59181019083016103da565b505050565b61019191905b8082111561033357600081556001016103e05600a165627a7a723058202d5df3ccbabe6099b177b14ef73223133c2efe3aadc5d3f6b70a283bc510185b0029",
  "source": "pragma solidity ^0.4.18;\n\nimport \"./KittyBox.sol\";\n\ncontract Ransom is KittyBox {\n  address public catnapper;\n  uint public price;\n  uint[] public safe;\n\n  event PayRansom(address backer, uint amount, uint catId);\n\n  /* Constructor function */\n  /*\n  function Ransom (\n    address ifSuccessfulSendTo,\n    uint ransomPrice\n  ) {\n    catnapper = if ifSuccessfulSendTo;\n    price = ransomPrice * 1 ether;\n  }\n  */\n}\n",
  "sourcePath": "/Users/j/Coding/cryptokittybox/contracts/Ransom.sol",
  "compiler": {
    "name": "solc",
    "version": "0.4.19+commit.c4cbbb05.Emscripten.clang"
  },
  "schemaVersion": "1.0.1",
  "updatedAt": "2018-03-12T21:29:53.717Z"
}